{
  "contractName": "CampaignFactory",
  "abi": [
    {
      "inputs": [
        {
          "internalType": "uint256",
          "name": "",
          "type": "uint256"
        }
      ],
      "name": "deployedContracts",
      "outputs": [
        {
          "internalType": "contract Campaign",
          "name": "",
          "type": "address"
        }
      ],
      "stateMutability": "view",
      "type": "function",
      "constant": true
    },
    {
      "inputs": [
        {
          "internalType": "uint256",
          "name": "minimum",
          "type": "uint256"
        }
      ],
      "name": "createCampaign",
      "outputs": [],
      "stateMutability": "nonpayable",
      "type": "function"
    },
    {
      "inputs": [],
      "name": "getDeployedCampaigns",
      "outputs": [
        {
          "internalType": "contract Campaign[]",
          "name": "",
          "type": "address[]"
        }
      ],
      "stateMutability": "view",
      "type": "function",
      "constant": true
    }
  ],
  "bytecode": "0x608060405234801561001057600080fd5b50611904806100206000396000f3fe608060405234801561001057600080fd5b50600436106100415760003560e01c80634acb9d4f146100465780639ad1ee1014610064578063a3303a7514610094575b600080fd5b61004e6100b0565b60405161005b9190610359565b60405180910390f35b61007e600480360381019061007991906103b6565b61013e565b60405161008b91906103f2565b60405180910390f35b6100ae60048036038101906100a991906103b6565b61017d565b005b6060600080548060200260200160405190810160405280929190818152602001828054801561013457602002820191906000526020600020905b8160009054906101000a900473ffffffffffffffffffffffffffffffffffffffff1673ffffffffffffffffffffffffffffffffffffffff16815260200190600101908083116100ea575b5050505050905090565b6000818154811061014e57600080fd5b906000526020600020016000915054906101000a900473ffffffffffffffffffffffffffffffffffffffff1681565b6000813360405161018d9061021e565b61019892919061043d565b604051809103906000f0801580156101b4573d6000803e3d6000fd5b5090506000819080600181540180825580915050600190039060005260206000200160009091909190916101000a81548173ffffffffffffffffffffffffffffffffffffffff021916908373ffffffffffffffffffffffffffffffffffffffff1602179055505050565b6114688061046783390190565b600081519050919050565b600082825260208201905092915050565b6000819050602082019050919050565b600073ffffffffffffffffffffffffffffffffffffffff82169050919050565b6000819050919050565b600061029c61029761029284610257565b610277565b610257565b9050919050565b60006102ae82610281565b9050919050565b60006102c0826102a3565b9050919050565b6102d0816102b5565b82525050565b60006102e283836102c7565b60208301905092915050565b6000602082019050919050565b60006103068261022b565b6103108185610236565b935061031b83610247565b8060005b8381101561034c57815161033388826102d6565b975061033e836102ee565b92505060018101905061031f565b5085935050505092915050565b6000602082019050818103600083015261037381846102fb565b905092915050565b600080fd5b6000819050919050565b61039381610380565b811461039e57600080fd5b50565b6000813590506103b08161038a565b92915050565b6000602082840312156103cc576103cb61037b565b5b60006103da848285016103a1565b91505092915050565b6103ec816102b5565b82525050565b600060208201905061040760008301846103e3565b92915050565b61041681610380565b82525050565b600061042782610257565b9050919050565b6104378161041c565b82525050565b6000604082019050610452600083018561040d565b61045f602083018461042e565b939250505056fe60806040523480156200001157600080fd5b50604051620014683803806200146883398181016040528101906200003791906200012b565b806000806101000a81548173ffffffffffffffffffffffffffffffffffffffff021916908373ffffffffffffffffffffffffffffffffffffffff16021790555081600181905550505062000172565b600080fd5b6000819050919050565b620000a0816200008b565b8114620000ac57600080fd5b50565b600081519050620000c08162000095565b92915050565b600073ffffffffffffffffffffffffffffffffffffffff82169050919050565b6000620000f382620000c6565b9050919050565b6200010581620000e6565b81146200011157600080fd5b50565b6000815190506200012581620000fa565b92915050565b6000806040838503121562000145576200014462000086565b5b60006200015585828601620000af565b9250506020620001688582860162000114565b9150509250929050565b6112e680620001826000396000f3fe6080604052600436106100865760003560e01c80638a9cfd55116100595780638a9cfd551461015f578063937e09b114610188578063d7bb99ba146101b3578063d7d1bbdb146101bd578063e7b668b4146101e657610086565b80630a1443911461008b578063481c6a75146100c857806381d12c58146100f357806382fde09314610134575b600080fd5b34801561009757600080fd5b506100b260048036038101906100ad9190610a5f565b61020f565b6040516100bf9190610aa7565b60405180910390f35b3480156100d457600080fd5b506100dd61022f565b6040516100ea9190610ad1565b60405180910390f35b3480156100ff57600080fd5b5061011a60048036038101906101159190610b22565b610253565b60405161012b959493929190610c18565b60405180910390f35b34801561014057600080fd5b5061014961033e565b6040516101569190610c72565b60405180910390f35b34801561016b57600080fd5b5061018660048036038101906101819190610dee565b610344565b005b34801561019457600080fd5b5061019d610491565b6040516101aa9190610c72565b60405180910390f35b6101bb610497565b005b3480156101c957600080fd5b506101e460048036038101906101df9190610b22565b61054d565b005b3480156101f257600080fd5b5061020d60048036038101906102089190610b22565b610722565b005b60026020528060005260406000206000915054906101000a900460ff1681565b60008054906101000a900473ffffffffffffffffffffffffffffffffffffffff1681565b600460205280600052604060002060009150905080600001805461027690610e8c565b80601f01602080910402602001604051908101604052809291908181526020018280546102a290610e8c565b80156102ef5780601f106102c4576101008083540402835291602001916102ef565b820191906000526020600020905b8154815290600101906020018083116102d257829003601f168201915b5050505050908060010154908060020160009054906101000a900473ffffffffffffffffffffffffffffffffffffffff16908060020160149054906101000a900460ff16908060040154905085565b60055481565b60008054906101000a900473ffffffffffffffffffffffffffffffffffffffff1673ffffffffffffffffffffffffffffffffffffffff163373ffffffffffffffffffffffffffffffffffffffff16146103d2576040517f08c379a00000000000000000000000000000000000000000000000000000000081526004016103c990610f0a565b60405180910390fd5b600060046000600360008154809291906103eb90610f59565b91905055815260200190815260200160002090508381600001908051906020019061041792919061094a565b50828160010181905550818160020160006101000a81548173ffffffffffffffffffffffffffffffffffffffff021916908373ffffffffffffffffffffffffffffffffffffffff16021790555060008160020160146101000a81548160ff0219169083151502179055506000816004018190555050505050565b60015481565b60015434116104db576040517f08c379a00000000000000000000000000000000000000000000000000000000081526004016104d290611014565b60405180910390fd5b6001600260003373ffffffffffffffffffffffffffffffffffffffff1673ffffffffffffffffffffffffffffffffffffffff16815260200190815260200160002060006101000a81548160ff0219169083151502179055506005600081548092919061054690610f59565b9190505550565b60011515600260003373ffffffffffffffffffffffffffffffffffffffff1673ffffffffffffffffffffffffffffffffffffffff16815260200190815260200160002060009054906101000a900460ff161515146105e0576040517f08c379a00000000000000000000000000000000000000000000000000000000081526004016105d790611080565b60405180910390fd5b600015156004600083815260200190815260200160002060030160003373ffffffffffffffffffffffffffffffffffffffff1673ffffffffffffffffffffffffffffffffffffffff16815260200190815260200160002060009054906101000a900460ff16151514610687576040517f08c379a000000000000000000000000000000000000000000000000000000000815260040161067e906110ec565b60405180910390fd5b60016004600083815260200190815260200160002060030160003373ffffffffffffffffffffffffffffffffffffffff1673ffffffffffffffffffffffffffffffffffffffff16815260200190815260200160002060006101000a81548160ff02191690831515021790555060046000828152602001908152602001600020600401600081548092919061071a90610f59565b919050555050565b60008054906101000a900473ffffffffffffffffffffffffffffffffffffffff1673ffffffffffffffffffffffffffffffffffffffff163373ffffffffffffffffffffffffffffffffffffffff16146107b0576040517f08c379a00000000000000000000000000000000000000000000000000000000081526004016107a790610f0a565b60405180910390fd5b6000600460008381526020019081526020016000209050600015158160020160149054906101000a900460ff1615151461081f576040517f08c379a000000000000000000000000000000000000000000000000000000000815260040161081690611158565b60405180910390fd5b600260055461082e91906111a7565b816004015411610873576040517f08c379a000000000000000000000000000000000000000000000000000000000815260040161086a90611224565b60405180910390fd5b47816001015411156108ba576040517f08c379a00000000000000000000000000000000000000000000000000000000081526004016108b190611290565b60405180910390fd5b60018160020160146101000a81548160ff0219169083151502179055508060020160009054906101000a900473ffffffffffffffffffffffffffffffffffffffff1673ffffffffffffffffffffffffffffffffffffffff166108fc82600101549081150290604051600060405180830381858888f19350505050158015610945573d6000803e3d6000fd5b505050565b82805461095690610e8c565b90600052602060002090601f01602090048101928261097857600085556109bf565b82601f1061099157805160ff19168380011785556109bf565b828001600101855582156109bf579182015b828111156109be5782518255916020019190600101906109a3565b5b5090506109cc91906109d0565b5090565b5b808211156109e95760008160009055506001016109d1565b5090565b6000604051905090565b600080fd5b600080fd5b600073ffffffffffffffffffffffffffffffffffffffff82169050919050565b6000610a2c82610a01565b9050919050565b610a3c81610a21565b8114610a4757600080fd5b50565b600081359050610a5981610a33565b92915050565b600060208284031215610a7557610a746109f7565b5b6000610a8384828501610a4a565b91505092915050565b60008115159050919050565b610aa181610a8c565b82525050565b6000602082019050610abc6000830184610a98565b92915050565b610acb81610a21565b82525050565b6000602082019050610ae66000830184610ac2565b92915050565b6000819050919050565b610aff81610aec565b8114610b0a57600080fd5b50565b600081359050610b1c81610af6565b92915050565b600060208284031215610b3857610b376109f7565b5b6000610b4684828501610b0d565b91505092915050565b600081519050919050565b600082825260208201905092915050565b60005b83811015610b89578082015181840152602081019050610b6e565b83811115610b98576000848401525b50505050565b6000601f19601f8301169050919050565b6000610bba82610b4f565b610bc48185610b5a565b9350610bd4818560208601610b6b565b610bdd81610b9e565b840191505092915050565b610bf181610aec565b82525050565b6000610c0282610a01565b9050919050565b610c1281610bf7565b82525050565b600060a0820190508181036000830152610c328188610baf565b9050610c416020830187610be8565b610c4e6040830186610c09565b610c5b6060830185610a98565b610c686080830184610be8565b9695505050505050565b6000602082019050610c876000830184610be8565b92915050565b600080fd5b600080fd5b7f4e487b7100000000000000000000000000000000000000000000000000000000600052604160045260246000fd5b610ccf82610b9e565b810181811067ffffffffffffffff82111715610cee57610ced610c97565b5b80604052505050565b6000610d016109ed565b9050610d0d8282610cc6565b919050565b600067ffffffffffffffff821115610d2d57610d2c610c97565b5b610d3682610b9e565b9050602081019050919050565b82818337600083830152505050565b6000610d65610d6084610d12565b610cf7565b905082815260208101848484011115610d8157610d80610c92565b5b610d8c848285610d43565b509392505050565b600082601f830112610da957610da8610c8d565b5b8135610db9848260208601610d52565b91505092915050565b610dcb81610bf7565b8114610dd657600080fd5b50565b600081359050610de881610dc2565b92915050565b600080600060608486031215610e0757610e066109f7565b5b600084013567ffffffffffffffff811115610e2557610e246109fc565b5b610e3186828701610d94565b9350506020610e4286828701610b0d565b9250506040610e5386828701610dd9565b9150509250925092565b7f4e487b7100000000000000000000000000000000000000000000000000000000600052602260045260246000fd5b60006002820490506001821680610ea457607f821691505b60208210811415610eb857610eb7610e5d565b5b50919050565b7f596f7520617265206e6f7420746865206d616e61676572000000000000000000600082015250565b6000610ef4601783610b5a565b9150610eff82610ebe565b602082019050919050565b60006020820190508181036000830152610f2381610ee7565b9050919050565b7f4e487b7100000000000000000000000000000000000000000000000000000000600052601160045260246000fd5b6000610f6482610aec565b91507fffffffffffffffffffffffffffffffffffffffffffffffffffffffffffffffff821415610f9757610f96610f2a565b5b600182019050919050565b7f596f752073686f756c64207061792067726561746572207468616e206d696e6960008201527f6d756d436f6e747269627574696f6e20616d6f756e7400000000000000000000602082015250565b6000610ffe603683610b5a565b915061100982610fa2565b604082019050919050565b6000602082019050818103600083015261102d81610ff1565b9050919050565b7f596f7520617265206e6f7420616e20617070726f766572000000000000000000600082015250565b600061106a601783610b5a565b915061107582611034565b602082019050919050565b600060208201905081810360008301526110998161105d565b9050919050565b7f596f75206861766520616c726561647920766f74656400000000000000000000600082015250565b60006110d6601683610b5a565b91506110e1826110a0565b602082019050919050565b60006020820190508181036000830152611105816110c9565b9050919050565b7f5265717565737420616c726561647920636f6d706c6574656400000000000000600082015250565b6000611142601983610b5a565b915061114d8261110c565b602082019050919050565b6000602082019050818103600083015261117181611135565b9050919050565b7f4e487b7100000000000000000000000000000000000000000000000000000000600052601260045260246000fd5b60006111b282610aec565b91506111bd83610aec565b9250826111cd576111cc611178565b5b828204905092915050565b7f4e6f7420656e6f75676820617070726f76657273000000000000000000000000600082015250565b600061120e601483610b5a565b9150611219826111d8565b602082019050919050565b6000602082019050818103600083015261123d81611201565b9050919050565b7f4e6f7420656e6f7567682066756e647300000000000000000000000000000000600082015250565b600061127a601083610b5a565b915061128582611244565b602082019050919050565b600060208201905081810360008301526112a98161126d565b905091905056fea2646970667358221220b25afedce4c908d4885dd2018db38ece7febe063ecf7c3854646657ba80ed6ca64736f6c63430008090033a2646970667358221220714b72eff62bda9bef0cd608d49d5586e14ee123f3e6f4a5c258f8e6959b911764736f6c63430008090033",
  "immutableReferences": {},
  "source": "// SPDX-License-Identifier: MIT\npragma solidity >=0.7.0 <0.9.0;\n\ncontract CampaignFactory {\n    Campaign[] public deployedContracts;\n\n    function createCampaign(uint minimum) public {\n        Campaign newCampaign = new Campaign(minimum, msg.sender);\n        deployedContracts.push(newCampaign);\n    }\n\n    function getDeployedCampaigns() public view returns(Campaign[] memory){\n        return deployedContracts;\n    }\n}\n\ncontract Campaign {\n    struct Request{\n        string description;\n        uint value;\n        address payable recipient;\n        bool complete;\n        mapping (address => bool) approvals;\n        uint approvalCount;\n    }\n\n\n    address public manager;\n    uint public minimumContribution;\n    mapping (address=>bool) public approvers;\n    uint numRequests;\n    mapping (uint => Request) public requests;\n    // Request[] public requests;\n    uint public approversCount;\n\n    modifier onlyManager{\n        require(msg.sender == manager, \"You are not the manager\");\n        _;\n    }\n\n    constructor(uint minimum, address creator){\n        manager = creator;\n        minimumContribution = minimum;\n    }\n\n    function contribute() public payable{\n        require(msg.value > minimumContribution, \"You should pay greater than minimumContribution amount\");\n        approvers[msg.sender] = true;\n        approversCount++;\n    }\n\n    function createRequest(string memory description, uint value, address payable recipient) public onlyManager{\n        Request storage newRequest = requests[numRequests++];\n        newRequest.description = description;\n        newRequest.value = value;\n        newRequest.recipient = recipient;\n        newRequest.complete = false;\n        newRequest.approvalCount = 0;\n    }\n\n    function approveRequest(uint requestNumber) public{\n        require(approvers[msg.sender]==true, \"You are not an approver\");\n        require(requests[requestNumber].approvals[msg.sender]==false, \"You have already voted\");\n        requests[requestNumber].approvals[msg.sender] = true;\n        requests[requestNumber].approvalCount++;\n    }\n\n    function finaliseRequest(uint requestNumber)public onlyManager{\n        Request storage request = requests[requestNumber];\n        require(request.complete == false, \"Request already completed\");\n        require(request.approvalCount > (approversCount/2), \"Not enough approvers\");\n        require(request.value <= address(this).balance, \"Not enough funds\");\n        request.complete = true;\n        request.recipient.transfer(request.value);\n    }\n}\n",
  "sourcePath": "/Users/etishagarg/Documents/folder/Crypto_Crowdfunding/contracts/Campaign.sol",
  "compiler": {
    "name": "solc",
    "version": "0.8.9+commit.e5eed63a.Emscripten.clang"
  },
  "schemaVersion": "3.4.3",
  "updatedAt": "2022-02-13T08:13:35.527Z",
  "networkType": "ethereum",
  "devdoc": {
    "kind": "dev",
    "methods": {},
    "version": 1
  },
  "userdoc": {
    "kind": "user",
    "methods": {},
    "version": 1
  }
}